:020000000000fe
:020001000000fd
:020002000000fc
:020003000000fb
:020004000000fa
:020005000000f9
:020006000000f8
:020007000000f7
:020008000000f6
:020009000000f5
:02000a000000f4
:02000b000000f3
:02000c000000f2
:02000d000000f1
:02000e000000f0
:02000f000000ef
:020010000000ee
:020011000000ed
:020012000000ec
:020013000000eb
:020014000000ea
:020015000000e9
:020016000000e8
:020017000000e7
:020018000000e6
:020019000000e5
:02001a000000e4
:02001b000000e3
:02001c000000e2
:02001d000000e1
:02001e000000e0
:02001f000000df
:02002000f34aa1
:02002100113597
:02002200f34a9f
:02002300113595
:02002400f34a9d
:02002500113593
:02002600f34a9b
:02002700113591
:02002800f34a99
:0200290011358f
:02002a00f34a97
:02002b0011358d
:02002c00f34a95
:02002d0011358b
:02002e00f34a93
:02002f00113589
:02003000f34a91
:02003100113587
:02003200f34a8f
:02003300113585
:02003400f34a8d
:02003500113583
:02003600f34a8b
:02003700113581
:02003800f34a89
:0200390011357f
:02003a00f34a87
:02003b0011357d
:02003c00f34a85
:02003d0011357b
:02003e00f34a83
:02003f00113579
:02004000f34a81
:02004100113577
:02004200f34a7f
:02004300113575
:02004400f34a7d
:02004500113573
:02004600f34a7b
:02004700113571
:02004800f34a79
:0200490011356f
:02004a00f34a77
:02004b0011356d
:02004c00f34a75
:02004d0011356b
:02004e00f34a73
:02004f00113569
:02005000f34a71
:02005100113567
:02005200f34a6f
:02005300113565
:02005400f34a6d
:02005500113563
:02005600f34a6b
:02005700113561
:02005800f34a69
:0200590011355f
:02005a00f34a67
:02005b0011355d
:02005c00f34a65
:02005d0011355b
:02005e00f34a63
:02005f00113559
:02006000f34a61
:02006100113557
:02006200f34a5f
:02006300113555
:02006400f34a5d
:02006500113553
:02006600f34a5b
:02006700113551
:02006800f34a59
:0200690011354f
:02006a00f34a57
:02006b0011354d
:02006c00f34a55
:02006d0011354b
:02006e00f34a53
:02006f00113549
:02007000f34a51
:02007100113547
:02007200f34a4f
:02007300113545
:02007400f34a4d
:02007500113543
:02007600f34a4b
:02007700113541
:02007800f34a49
:0200790011353f
:02007a00f34a47
:02007b0011353d
:02007c00f34a45
:02007d0011353b
:02007e00f34a43
:02007f00113539
:00000001FF
