:020000000000fe
:020001000000fd
:020002000000fc
:020003000000fb
:0200040000e01a
:020005000000f9
:020006000000f8
:020007000000f7
:020008000000f6
:020009000000f5
:02000a000000f4
:02000b000000f3
:02000c000000f2
:02000d000000f1
:02000e000000f0
:02000f000000ef
:020010000000ee
:020011000000ed
:020012000000ec
:020013000000eb
:020014000000ea
:020015000000e9
:020016000000e8
:020017000000e7
:020018000000e6
:020019000000e5
:02001a000000e4
:02001b000000e3
:02001c000000e2
:02001d000000e1
:02001e000000e0
:02001f000000df
:0200200006aa2e
:02002100010dcf
:02002200001bc1
:02002300028a4f
:02002400019544
:02002500015385
:0200260007b918
:02002700004790
:0200280006c907
:0200290007834b
:02002a0002e6ec
:02002b0001854d
:02002c00062e9e
:02002d0000b21f
:02002e00079039
:02002f00034f7d
:02003000016766
:02003100055b6d
:02003200010ebd
:02003300035375
:02003400018742
:02003500078d35
:0200360000fbcd
:02003700031da7
:02003800019b2a
:0200390006526d
:02003a0002734f
:02003b0005546a
:02003c0005a617
:02003d0006516a
:02003e0003e8d5
:02003f00068e2b
:0200400004ba00
:02004100023289
:02004200065b5b
:02004300007c3f
:02004400079221
:0200450006bff4
:0200460004674d
:02004700047f34
:0200480004149e
:02004900009223
:02004a0005e5ca
:02004b00022988
:02004c00046648
:02004d0007ecbe
:02004e000007a9
:02004f00051a90
:0200500001723b
:020051000604a3
:02005200003a72
:02005300076044
:02005400031493
:0200550005f7ad
:0200560007fca5
:0200570005178b
:0200580002257f
:0200590004376a
:02005a00035d44
:02005b0005c2dc
:02005c00026f31
:02005d00018719
:02005e00045349
:02005f0000a9f6
:02006000056c2d
:0200610007b2e4
:02006200063165
:02006300028f0a
:0200640005583d
:02006500031d79
:0200660000d5c3
:0200670007761a
:0200680003c3d0
:02006900046829
:02006a0005a6e9
:02006b0001741e
:02006c00043559
:02006d00072d5d
:02006e00070386
:02006f00025637
:0200700004a3e7
:02007100067d0a
:02007200032b5e
:02007300056125
:02007400036d1a
:02007500047114
:02007600021e68
:02007700067908
:0200780001275e
:0200790007423c
:02007a0006df9f
:02007b0003255b
:02007c0004611d
:02007d0007f783
:02007e00052b50
:02007f0007a1d7
:020080000289f3
:0200810006eb8c
:020082000493e5
:020083000188f2
:02008400033a3d
:0200850001690f
:0200860007b4bd
:02008700002b4c
:020088000588e9
:0200890001f183
:02008a0002e989
:02008b0005521c
:02008c00022848
:02008d0002d49b
:02008e00020569
:02008f00066306
:0200900004f674
:020091000778ee
:02009200002844
:02009300042b3c
:020094000782e1
:020095000697cc
:020096000581e2
:0200970001471f
:020098000579e8
:02009900002d38
:02009a00011d46
:02009b000674e9
:02009c00059dc0
:02009d0001e27e
:02009e0002d787
:02009f0005b7a3
:0200a0000467f3
:0200a10001eb71
:0200a20007dc79
:0200a300071e36
:0200a400003b1f
:0200a500000b4e
:0200a60005c192
:0200a700027adb
:0200a80007b798
:0200a90002dd76
:0200aa00073d10
:0200ab000693ba
:0200ac00070645
:0200ad0006b497
:0200ae00071633
:0200af00059ab0
:0200b0000681c7
:0200b10000ff4e
:0200b20001f457
:0200b30006a1a4
:0200b40006be86
:0200b5000573d1
:0200b60005fa49
:0200b7000088bf
:0200b800050e33
:0200b900023211
:0200ba0003fa47
:0200bb000770cc
:0200bc00011928
:0200bd000290af
:0200be00046bd1
:0200bf00000837
:0200c000009ba3
:0200c1000644f3
:0200c200055dda
:0200c300060332
:0200c400060b29
:0200c500020d2a
:0200c600000731
:0200c70000fa3d
:0200c800071718
:0200c90001fa3a
:0200ca00046bc5
:0200cb0003b27e
:0200cc0001131e
:0200cd000664c7
:0200ce00069c8e
:0200cf000267c6
:0200d00003f635
:0200d100062dfa
:0200d200000626
:0200d3000382a6
:0200d400011514
:0200d5000759c9
:0200d60003b96c
:0200d70004eb38
:0200d8000169bc
:0200d90007908e
:0200da0003c958
:0200db0002e63b
:0200dc000538e5
:0200dd0007d04a
:0200de0000b868
:0200df0003bc60
:0200e000038695
:0200e100028893
:0200e20000ef2d
:0200e300060e07
:0200e40003f621
:0200e500031303
:0200e60001898e
:0200e70005ce44
:0200e8000753bc
:0200e900004cc9
:0200ea00078b82
:0200eb0005f21c
:0200ec00068f7d
:0200ed00038787
:0200ee00068d7d
:0200ef0000ce41
:0200f000046c9e
:0200f100045cad
:0200f20002a169
:0200f30000a269
:0200f400046f97
:0200f50002c83f
:0200f600021fe7
:0200f70007c23e
:0200f800049969
:0200f90004c041
:0200fa00076796
:0200fb0004be41
:0200fc000039c9
:0200fd0004da23
:0200fe0006e218
:0200ff00024cb1
:00000001FF
